:020000040800F2
:100000001804002071030008E1030008E103000860
:10001000E1030008E1030008E1030008000000001C
:10002000000000000000000000000000E1030008E4
:10003000E103000800000000E1030008E1030008FC
:10004000E1030008E1030008E1030008E103000800
:10005000E1030008E1030008E1030008E1030008F0
:10006000E1030008E1030008E1030008E1030008E0
:10007000E1030008E1030008E1030008E1030008D0
:10008000E1030008E1030008E103000800000000AC
:10009000000000000000000000000000E103000874
:1000A000E1030008E1030008E1030008E1030008A0
:1000B000E1030008E1030008E1030008E103000890
:1000C000E1030008E1030008E1030008E103000880
:1000D000E1030008E1030008E1030008E103000870
:1000E000E1030008E1030008E1030008000000004C
:1000F0000000000000000000000000000000000000
:1001000000000000000000000000000000000000EF
:100110000000000000000000E1030008E103000807
:100120005FF808F180B586B000AF4FF400104FF0D3
:10013000010100F005FD4FF009004FF0010100F052
:10014000D5FC4FF002004FF0010100F035FB4FF4F9
:100150004073BB824FF00303BB754FF01C03FB756C
:1001600007F114034FF44060C4F20100194600F097
:100170004BFA4FF000033B814BF6FF737B814FF44A
:100180008063FB814FF480433B824FF4D453C0F231
:1001900006037B604FF4A840C4F200004FF0010159
:1001A00000F0CEFD07F104034FF4A840C4F20000B4
:1001B000194600F0EFFC07F11807BD4680BD00BFEF
:1001C00080B584B000AF3A600246FA710A46BA714F
:1001D0007B71FA79BB7910464FF001011A4600F0A5
:1001E00043F84FF00003FB602DE000BF4FF4A84040
:1001F000C4F200004FF04001C0F2030100F02EFEF7
:100200000346002BF2D04FF4A840C4F2000000F0E7
:1002100017FE03461A463B681A703B6803F1010358
:100220003B607B7903F1FF32FB689A4207DC4FF4B5
:10023000A840C4F200004FF0000100F0E1FDFB68AF
:1002400003F10103FB607A79FB689A42CDDC4FF43D
:10025000A840C4F200004FF0010100F0B1FD07F129
:100260001007BD4680BD00BF80B582B000AF134609
:100270000246FA710A46BA717B714FF4A840C4F283
:1002800000004FF0010100F07BFD00BF4FF4A840DB
:10029000C4F200004FF00101C0F2030100F0DEFDE6
:1002A0000346002BF2D04FF4A843C4F20003FA79BE
:1002B00092B24FEA420292B21A8200BF4FF4A840B3
:1002C000C4F200004FF08201C0F2070100F0C6FD49
:1002D0000346002BF2D04FF4A843C4F200037A790E
:1002E00092B21A8200BF4FF4A840C4F200004FF04F
:1002F0008401C0F2070100F0B1FD0346002BF2D0EB
:10030000BB79012B30D14FF4A840C4F200004FF06C
:10031000010100F035FD00BF4FF4A840C4F2000019
:100320004FF00101C0F2030100F098FD0346002BDD
:10033000F2D04FF4A843C4F20003FA7992B24FEA24
:10034000420292B202F1010292B21A8200BF4FF44D
:10035000A840C4F200004FF00201C0F2030100F017
:100360007DFD0346002BF2D007F10807BD4680BD96
:1003700080B582B000AF40F6CC63C0F600037B606E
:1003800040F20003C2F200033B600BE07B681A6896
:100390003B681A603B6803F104033B607B6803F130
:1003A00004037B603A6840F21403C2F200039A42ED
:1003B000ECD3094809494FF000028842B8BF40F821
:1003C000042BFFF6FAAF00F00FF800F085FA07F102
:1003D0000807BD4680BD0000140000201400002066
:1003E00080B400AFFEE700BF80B500AF4FF480538C
:1003F000C4F202034FF48052C4F20202126842F0C7
:1004000001021A604FF48052C4F202024FF480538A
:10041000C4F2020359684FF00003CFF6FF030B400C
:1004200053604FF48053C4F202034FF48052C4F27D
:100430000202126822F0847222F480321A604FF4B1
:100440008053C4F202034FF48052C4F202021268D5
:1004500022F480221A604FF48053C4F202034FF456
:100460008052C4F20202526822F4FE025A604FF433
:100470008053C4F202034FF41F029A604FF480537A
:10048000C4F202034FF00002DA6200F009F84FF400
:100490006D43CEF200034FF000629A6080BD00BF52
:1004A00080B500AF00F002F880BD00BF80B483B01B
:1004B00000AF4FF000037B604FF000033B604FF450
:1004C0008053C4F202034FF48052C4F20202126855
:1004D00042F480321A604FF48053C4F202031B6866
:1004E00003F400333B607B6803F101037B603B68EE
:1004F000002B03D17B68B3F5A06FECD14FF4805390
:10050000C4F202031B6803F40033002B03D04FF046
:1005100001033B6002E04FF000033B603B68012BAE
:100520006DD14FF48053C4F202034FF48052C4F2F1
:10053000020252685A604FF48053C4F202034FF42F
:100540008052C4F2020252685A604FF48053C4F2DF
:1005500002034FF48052C4F2020252685A604FF410
:100560008053C4F202034FF48052C4F20202526874
:1005700022F47C125A604FF48053C4F202034FF409
:100580008052C4F20202526842F498125A604FF448
:100590008053C4F202034FF48052C4F20202126884
:1005A00042F080721A6000BF4FF48053C4F202031D
:1005B0001B6803F00073002BF6D04FF48053C4F295
:1005C00002034FF48052C4F20202526822F0030286
:1005D0005A604FF48053C4F202034FF48052C4F2C5
:1005E0000202526842F002025A6000BF4FF4805388
:1005F000C4F202035B6803F00C03082BF6D107F189
:100600000C07BD4680BC704780B489B000AF7860ED
:1006100039604FF00003FB614FF000033B614FF086
:100620000003BB614FF00003FB604FF000037B61F0
:100630004FF00003BB603B68DB7803F00F03FB6106
:100640003B68DB7803F01003002B04D03B689B78F9
:10065000FA691343FB613B681B88DBB2002B4ED069
:100660007B681B687B614FF00003BB6141E0BB69A5
:100670004FF0010202FA03F3FB603B681B881A4645
:10068000FB6813403B613A69FB689A422DD1BB6914
:100690004FEA8303FB60FB684FF00F0202FA03F39B
:1006A000BB60BB686FEA03037A6913407B61FB6838
:1006B000FA6902FA03F37A6913437B613B68DB78DA
:1006C000282B07D1BB694FF0010202FA03F27B68C5
:1006D0005A610AE03B68DB78482B06D1BB694FF0D2
:1006E000010202FA03F27B681A61BB6903F101039C
:1006F000BB61BB69072BBAD97B687A691A603B6812
:100700001B88FF2B53D97B685B687B614FF000032C
:10071000BB6146E0BB6903F108034FF0010202FA36
:1007200003F3FB603B681B881A46FB6813403B6180
:100730003A69FB689A4230D1BB694FEA8303FB6098
:10074000FB684FF00F0202FA03F3BB60BB686FEA6D
:1007500003037A6913407B61FB68FA6902FA03F3C9
:100760007A6913437B613B68DB78282B08D1BB692E
:1007700003F108034FF0010202FA03F27B685A61A9
:100780003B68DB78482B08D1BB6903F108034FF0C5
:10079000010202FA03F27B681A61BB6903F10103EB
:1007A000BB61BB69072BB5D97B687A695A6007F1D1
:1007B0002407BD4680BC704780B487B000AF786026
:1007C0000B46FB704FF000033B614FF00003FB60F2
:1007D0004FF000037B614FF00003BB607B68002B90
:1007E00006DA4FF00003C4F20103DB697B6105E028
:1007F0004FF00003C4F201035B687B617B6803F484
:1008000070234FEA1343BB607B684FEA03434FEA10
:1008100013433B617B6803F44013B3F5401F10D1D1
:100820007B6923F070637B614FF00003C4F2010326
:100830004FF00002C4F20102526822F070625A6066
:1008400026E07B6803F48013002B10D0BB684FF0C8
:10085000030202FA03F3FB60FB686FEA03037A69A1
:1008600013407B617B6943F070637B6110E07B68C0
:100870004FEA53534FEA03133A6902FA03F36FEA5C
:1008800003037A6913407B617B6943F070637B618A
:10089000FB78002B0AD07B684FEA53534FEA0313CF
:1008A0003A6902FA03F37A6913437B617B68002B90
:1008B00006DA4FF00003C4F201037A69DA6105E059
:1008C0004FF00003C4F201037A695A6007F11C0774
:1008D000BD4680BC704700BF80B582B000AFFFF757
:1008E00083FDFFF71FFC4FF000033B704FF0000348
:1008F0007B704FF00003BB704FF00003FB704FF0B4
:1009000000033B714FF000037B713B464FF05300F7
:100910004FF032011A464FF00603FFF751FCF4E79F
:1009200080B489B000AF78604FF00003FB614FF0F6
:100930000003BB614FF000037B614FF000033B619C
:100940004FF00003FB604FF48053C4F202035B6876
:1009500003F00C03FB61FB69042B0AD0082B0FD0BA
:10096000002B47D17A684FF49053C0F27A0313609A
:1009700047E07A684FF49053C0F27A03136040E086
:100980004FF48053C4F202035B6803F47013BB613D
:100990004FF48053C4F202035B6803F480337B613D
:1009A000BB694FEA934303F10203BB617B69002BF0
:1009B00009D1BA694FF41063C0F23D0303FB02F2A0
:1009C0007B681A601DE04FF48053C4F20203DB6AB7
:1009D00003F00F0303F10103FB604FF49053C0F2E7
:1009E0007A03FA68B3FBF2F3BA6902FB03F27B689D
:1009F0001A6006E07A684FF49053C0F27A031360ED
:100A000000BF4FF48053C4F202035B6803F0F003AD
:100A1000FB61FB694FEA1313FB6140F20003C2F272
:100A20000003FA699B181B78DBB23B617B681A688C
:100A30003B6922FA03F27B685A604FF48053C4F298
:100A400002035B6803F4E063FB61FB694FEA132375
:100A5000FB6140F20003C2F20003FA699B181B78A5
:100A6000DBB23B617B685A683B6922FA03F27B6820
:100A70009A604FF48053C4F202035B6803F460533E
:100A8000FB61FB694FEAD323FB6140F20003C2F232
:100A90000003FA699B181B78DBB23B617B685A68DC
:100AA0003B6922FA03F27B68DA604FF48053C4F2A8
:100AB00002035B6803F44043FB61FB694FEA933335
:100AC000FB6140F21003C2F20003FA699B181B7825
:100AD000DBB23B617B68DA683B69B2FBF3F27B68AF
:100AE0001A6107F12407BD4680BC704780B483B00B
:100AF00000AF78600B46FB70FB78002B0CD04FF4F6
:100B00008053C4F202034FF48052C4F2020291698E
:100B10007A680A439A610DE04FF48053C4F20203ED
:100B20004FF48052C4F2020291697A686FEA0202BD
:100B30000A409A6107F10C07BD4680BC704700BFB0
:100B400080B483B000AF78600B46FB70FB78002B5D
:100B50000CD04FF48053C4F202034FF48052C4F21D
:100B60000202D1697A680A43DA610DE04FF48053DA
:100B7000C4F202034FF48052C4F20202D1697A68CF
:100B80006FEA02020A40DA6107F10C07BD4680BC39
:100B9000704700BF80B58AB000AF786039604FF011
:100BA0000003FB844FF000037B844FF00403BB84FD
:100BB0004FF49053C0F27A03FB617B689B88FB84FF
:100BC000FB8C23F03F03FB8407F108031846FFF773
:100BD000A7FE3B69FB61FA694DF68363C4F21B33E0
:100BE000A3FB02134FEA93437B84FA8C7B8C134361
:100BF000FB847B68FA8C9A807B681B889BB223F00D
:100C000001039AB27B681A804FF00003FB843B68B3
:100C10001A6848F2A063C0F201039A4218D83B68F0
:100C20001B684FEA4303FA69B2FBF3F3BB84BB8C46
:100C3000032B02D84FF00403BB84FA8CBB8C134304
:100C4000FB847B8C03F101039AB27B681A844BE02E
:100C50003B68DA884BF6FF739A420AD13B681A6800
:100C600013464FEA43039B18FA69B2FBF3F3BB84C4
:100C700010E03B681A6813464FEA83039B184FEA5B
:100C800083029B18FA69B2FBF3F3BB84BB8C43F479
:100C90008043BB84BB8C4FEA03534FEA1353002BB2
:100CA00003D1BB8C43F00103BB84BA8CFB8C134390
:100CB0009BB26FEA43436FEA5343FB847B8C4FF450
:100CC000967202FB03F244F6D353C1F2620383FB34
:100CD00002134FEAA3114FEAE273CB1A9BB203F15E
:100CE00001039AB27B681A847B68FA8C9A837B68CA
:100CF0001B889BB243F001039AB27B681A807B6821
:100D00001B88FB84FB8C23F4816323F00203FB84A8
:100D10003B689A883B685B8913439AB2FB8C134308
:100D2000FB847B68FA8C1A803B689A893B681B8934
:100D300013439AB27B681A8107F12807BD4680BD2C
:100D400080B483B000AF78600B46FB70FB78002B5B
:100D500008D07B681B889BB243F001039AB27B6882
:100D60001A8007E07B681B889BB223F001039AB2CC
:100D70007B681A8007F10C07BD4680BC704700BF36
:100D800080B483B000AF78600B46FB70FB78002B1B
:100D900008D07B681B889BB243F480739AB27B684F
:100DA0001A8007E07B681B889BB223F480739AB299
:100DB0007B681A8007F10C07BD4680BC704700BFF6
:100DC00080B483B000AF78600B46FB70FB78002BDB
:100DD00008D07B681B889BB243F400739AB27B688F
:100DE0001A8007E07B681B889BB223F400739AB2D9
:100DF0007B681A8007F10C07BD4680BC704700BFB6
:100E000080B483B000AF78600B46FB70FB78002B9A
:100E100008D07B681B889BB243F480639AB27B68DE
:100E20001A8007E07B681B889BB223F480639AB228
:100E30007B681A8007F10C07BD4680BC704700BF75
:100E400080B483B000AF78607B681B8A9BB2DBB252
:100E5000184607F10C07BD4680BC704780B487B0C8
:100E600000AF786039604FF000033B614FF0000342
:100E7000FB604FF00003BB604FF00003FB757B6825
:100E80009B8A9BB2FB607B681B8B9BB2BB60BB6881
:100E90004FEA0343BB60FA68BB68134323F07F4308
:100EA0003B613A693B681A403B689A4203D14FF074
:100EB0000103FB7502E04FF00003FB75FB7D184654
:0C0EC00007F11C07BD4680BC704700BF56
:100ECC0000000000010203040102030406070809E4
:040EDC0002040608FE
:0400000508000000EF
:00000001FF
